{
  "contractName": "DShopping",
  "abi": [
    {
      "inputs": [],
      "payable": false,
      "stateMutability": "nonpayable",
      "type": "constructor"
    },
    {
      "anonymous": false,
      "inputs": [
        {
          "indexed": false,
          "internalType": "uint256",
          "name": "id",
          "type": "uint256"
        },
        {
          "indexed": false,
          "internalType": "string",
          "name": "serialNo",
          "type": "string"
        },
        {
          "indexed": false,
          "internalType": "string",
          "name": "name",
          "type": "string"
        },
        {
          "indexed": false,
          "internalType": "string",
          "name": "desc",
          "type": "string"
        },
        {
          "indexed": false,
          "internalType": "uint256",
          "name": "price",
          "type": "uint256"
        },
        {
          "indexed": false,
          "internalType": "string",
          "name": "imageHash",
          "type": "string"
        },
        {
          "indexed": false,
          "internalType": "address",
          "name": "owner",
          "type": "address"
        }
      ],
      "name": "ProductCreated",
      "type": "event"
    },
    {
      "anonymous": false,
      "inputs": [
        {
          "indexed": false,
          "internalType": "uint256",
          "name": "id",
          "type": "uint256"
        },
        {
          "indexed": false,
          "internalType": "string",
          "name": "serialNo",
          "type": "string"
        },
        {
          "indexed": false,
          "internalType": "string",
          "name": "name",
          "type": "string"
        },
        {
          "indexed": false,
          "internalType": "string",
          "name": "desc",
          "type": "string"
        },
        {
          "indexed": false,
          "internalType": "uint256",
          "name": "price",
          "type": "uint256"
        },
        {
          "indexed": false,
          "internalType": "string",
          "name": "imageHash",
          "type": "string"
        },
        {
          "indexed": false,
          "internalType": "address",
          "name": "owner",
          "type": "address"
        }
      ],
      "name": "ProductFetch",
      "type": "event"
    },
    {
      "constant": true,
      "inputs": [],
      "name": "productCount",
      "outputs": [
        {
          "internalType": "uint256",
          "name": "",
          "type": "uint256"
        }
      ],
      "payable": false,
      "stateMutability": "view",
      "type": "function"
    },
    {
      "constant": true,
      "inputs": [
        {
          "internalType": "uint256",
          "name": "",
          "type": "uint256"
        }
      ],
      "name": "products",
      "outputs": [
        {
          "internalType": "uint256",
          "name": "id",
          "type": "uint256"
        },
        {
          "internalType": "string",
          "name": "serialNo",
          "type": "string"
        },
        {
          "internalType": "string",
          "name": "name",
          "type": "string"
        },
        {
          "internalType": "string",
          "name": "desc",
          "type": "string"
        },
        {
          "internalType": "uint256",
          "name": "price",
          "type": "uint256"
        },
        {
          "internalType": "string",
          "name": "imageHash",
          "type": "string"
        },
        {
          "internalType": "address",
          "name": "owner",
          "type": "address"
        }
      ],
      "payable": false,
      "stateMutability": "view",
      "type": "function"
    },
    {
      "constant": false,
      "inputs": [
        {
          "internalType": "string",
          "name": "_serialNo",
          "type": "string"
        },
        {
          "internalType": "string",
          "name": "_name",
          "type": "string"
        },
        {
          "internalType": "string",
          "name": "_desc",
          "type": "string"
        },
        {
          "internalType": "uint256",
          "name": "_price",
          "type": "uint256"
        },
        {
          "internalType": "string",
          "name": "_imageHash",
          "type": "string"
        }
      ],
      "name": "createProduct",
      "outputs": [],
      "payable": false,
      "stateMutability": "nonpayable",
      "type": "function"
    },
    {
      "constant": false,
      "inputs": [
        {
          "internalType": "uint256",
          "name": "id",
          "type": "uint256"
        }
      ],
      "name": "getProductById",
      "outputs": [],
      "payable": false,
      "stateMutability": "nonpayable",
      "type": "function"
    },
    {
      "constant": true,
      "inputs": [],
      "name": "getProductCount",
      "outputs": [
        {
          "internalType": "uint256",
          "name": "",
          "type": "uint256"
        }
      ],
      "payable": false,
      "stateMutability": "view",
      "type": "function"
    }
  ],
  "bytecode": "0x6080604052600060015534801561001557600080fd5b50336000806101000a81548173ffffffffffffffffffffffffffffffffffffffff021916908373ffffffffffffffffffffffffffffffffffffffff16021790555061100a806100656000396000f3fe608060405234801561001057600080fd5b50600436106100575760003560e01c806332e086a11461005c5780633f70c2b4146102e65780634a348da9146103145780637acc0b2014610332578063e0f6ef871461055e575b600080fd5b6102e4600480360360a081101561007257600080fd5b810190808035906020019064010000000081111561008f57600080fd5b8201836020820111156100a157600080fd5b803590602001918460018302840111640100000000831117156100c357600080fd5b91908080601f016020809104026020016040519081016040528093929190818152602001838380828437600081840152601f19601f8201169050808301925050505050505091929192908035906020019064010000000081111561012657600080fd5b82018360208201111561013857600080fd5b8035906020019184600183028401116401000000008311171561015a57600080fd5b91908080601f016020809104026020016040519081016040528093929190818152602001838380828437600081840152601f19601f820116905080830192505050505050509192919290803590602001906401000000008111156101bd57600080fd5b8201836020820111156101cf57600080fd5b803590602001918460018302840111640100000000831117156101f157600080fd5b91908080601f016020809104026020016040519081016040528093929190818152602001838380828437600081840152601f19601f820116905080830192505050505050509192919290803590602001909291908035906020019064010000000081111561025e57600080fd5b82018360208201111561027057600080fd5b8035906020019184600183028401116401000000008311171561029257600080fd5b91908080601f016020809104026020016040519081016040528093929190818152602001838380828437600081840152601f19601f82011690508083019250505050505050919291929050505061057c565b005b610312600480360360208110156102fc57600080fd5b8101908080359060200190929190505050610970565b005b61031c610c5e565b6040518082815260200191505060405180910390f35b61035e6004803603602081101561034857600080fd5b8101908080359060200190929190505050610c68565b60405180888152602001806020018060200180602001878152602001806020018673ffffffffffffffffffffffffffffffffffffffff1673ffffffffffffffffffffffffffffffffffffffff16815260200185810385528b818151815260200191508051906020019080838360005b838110156103e85780820151818401526020810190506103cd565b50505050905090810190601f1680156104155780820380516001836020036101000a031916815260200191505b5085810384528a818151815260200191508051906020019080838360005b8381101561044e578082015181840152602081019050610433565b50505050905090810190601f16801561047b5780820380516001836020036101000a031916815260200191505b50858103835289818151815260200191508051906020019080838360005b838110156104b4578082015181840152602081019050610499565b50505050905090810190601f1680156104e15780820380516001836020036101000a031916815260200191505b50858103825287818151815260200191508051906020019080838360005b8381101561051a5780820151818401526020810190506104ff565b50505050905090810190601f1680156105475780820380516001836020036101000a031916815260200191505b509b50505050505050505050505060405180910390f35b610566610f2a565b6040518082815260200191505060405180910390f35b600073ffffffffffffffffffffffffffffffffffffffff163373ffffffffffffffffffffffffffffffffffffffff1614156105b657600080fd5b60008551116105c457600080fd5b60008451116105d257600080fd5b60008351116105e057600080fd5b60008210156105ee57600080fd5b60008151116105fc57600080fd5b6001600081548092919060010191905055506040518060e0016040528060015481526020018681526020018581526020018481526020018381526020018281526020013373ffffffffffffffffffffffffffffffffffffffff16815250600260006001548152602001908152602001600020600082015181600001556020820151816001019080519060200190610694929190610f30565b5060408201518160020190805190602001906106b1929190610f30565b5060608201518160030190805190602001906106ce929190610f30565b506080820151816004015560a08201518160050190805190602001906106f5929190610f30565b5060c08201518160060160006101000a81548173ffffffffffffffffffffffffffffffffffffffff021916908373ffffffffffffffffffffffffffffffffffffffff1602179055509050507f84e76a2041ed54ec1feaa01d81256672375e11ece9f50553923e99c070657fa360015486868686863360405180888152602001806020018060200180602001878152602001806020018673ffffffffffffffffffffffffffffffffffffffff1673ffffffffffffffffffffffffffffffffffffffff16815260200185810385528b818151815260200191508051906020019080838360005b838110156107f45780820151818401526020810190506107d9565b50505050905090810190601f1680156108215780820380516001836020036101000a031916815260200191505b5085810384528a818151815260200191508051906020019080838360005b8381101561085a57808201518184015260208101905061083f565b50505050905090810190601f1680156108875780820380516001836020036101000a031916815260200191505b50858103835289818151815260200191508051906020019080838360005b838110156108c05780820151818401526020810190506108a5565b50505050905090810190601f1680156108ed5780820380516001836020036101000a031916815260200191505b50858103825287818151815260200191508051906020019080838360005b8381101561092657808201518184015260208101905061090b565b50505050905090810190601f1680156109535780820380516001836020036101000a031916815260200191505b509b50505050505050505050505060405180910390a15050505050565b60006002600083815260200190815260200160002090507f9782b6d057ae6d17c54476c6998a9e849aa14868a58d3c5e25df10df28ca6b6b81600001548260010183600201846003018560040154866005018760060160009054906101000a900473ffffffffffffffffffffffffffffffffffffffff1660405180888152602001806020018060200180602001878152602001806020018673ffffffffffffffffffffffffffffffffffffffff1673ffffffffffffffffffffffffffffffffffffffff16815260200185810385528b818154600181600116156101000203166002900481526020019150805460018160011615610100020316600290048015610aba5780601f10610a8f57610100808354040283529160200191610aba565b820191906000526020600020905b815481529060010190602001808311610a9d57829003601f168201915b505085810384528a818154600181600116156101000203166002900481526020019150805460018160011615610100020316600290048015610b3d5780601f10610b1257610100808354040283529160200191610b3d565b820191906000526020600020905b815481529060010190602001808311610b2057829003601f168201915b5050858103835289818154600181600116156101000203166002900481526020019150805460018160011615610100020316600290048015610bc05780601f10610b9557610100808354040283529160200191610bc0565b820191906000526020600020905b815481529060010190602001808311610ba357829003601f168201915b5050858103825287818154600181600116156101000203166002900481526020019150805460018160011615610100020316600290048015610c435780601f10610c1857610100808354040283529160200191610c43565b820191906000526020600020905b815481529060010190602001808311610c2657829003601f168201915b50509b50505050505050505050505060405180910390a15050565b6000600154905090565b6002602052806000526040600020600091509050806000015490806001018054600181600116156101000203166002900480601f016020809104026020016040519081016040528092919081815260200182805460018160011615610100020316600290048015610d1a5780601f10610cef57610100808354040283529160200191610d1a565b820191906000526020600020905b815481529060010190602001808311610cfd57829003601f168201915b505050505090806002018054600181600116156101000203166002900480601f016020809104026020016040519081016040528092919081815260200182805460018160011615610100020316600290048015610db85780601f10610d8d57610100808354040283529160200191610db8565b820191906000526020600020905b815481529060010190602001808311610d9b57829003601f168201915b505050505090806003018054600181600116156101000203166002900480601f016020809104026020016040519081016040528092919081815260200182805460018160011615610100020316600290048015610e565780601f10610e2b57610100808354040283529160200191610e56565b820191906000526020600020905b815481529060010190602001808311610e3957829003601f168201915b505050505090806004015490806005018054600181600116156101000203166002900480601f016020809104026020016040519081016040528092919081815260200182805460018160011615610100020316600290048015610efa5780601f10610ecf57610100808354040283529160200191610efa565b820191906000526020600020905b815481529060010190602001808311610edd57829003601f168201915b5050505050908060060160009054906101000a900473ffffffffffffffffffffffffffffffffffffffff16905087565b60015481565b828054600181600116156101000203166002900490600052602060002090601f016020900481019282601f10610f7157805160ff1916838001178555610f9f565b82800160010185558215610f9f579182015b82811115610f9e578251825591602001919060010190610f83565b5b509050610fac9190610fb0565b5090565b610fd291905b80821115610fce576000816000905550600101610fb6565b5090565b9056fea265627a7a723158206fe94fa61a64c98b6d3990a9edaa8c6ea1aaf44f283a0fe16f2e152961d8167f64736f6c63430005100032",
  "source": "// SPDX-License-Identifier: MIT\r\npragma solidity >=0.4.22 <0.9.0;\r\n\r\ncontract DShopping {\r\n    address owner;\r\n    uint public productCount = 0;\r\n    \r\n    struct Product \r\n    {\r\n        uint id;\r\n        string serialNo;\r\n        string name;\r\n        string desc;\r\n        uint price;\r\n        string imageHash;\r\n        address owner;\r\n    }\r\n\r\n    mapping(uint256 => Product) public products;\r\n\r\n    event ProductCreated\r\n    (\r\n        uint id,\r\n        string serialNo,\r\n        string name,\r\n        string desc,\r\n        uint price,\r\n        string imageHash,\r\n        address owner\r\n    );\r\n\r\n    event ProductFetch\r\n    (\r\n        uint id,\r\n        string serialNo,\r\n        string name,\r\n        string desc,\r\n        uint price,\r\n        string imageHash,\r\n        address owner\r\n    );\r\n\r\n    constructor() public { \r\n        owner = msg.sender;\r\n    }\r\n\r\n    function createProduct(string memory _serialNo, string memory _name, string memory _desc, uint _price, string memory _imageHash) public {\r\n        // Require a valid Owner address\r\n        require(msg.sender != address(0x0));\r\n        // Require a valid serlialNo\r\n        require(bytes(_serialNo).length > 0);\r\n        // Require a valid name\r\n        require(bytes(_name).length > 0);\r\n        // Require a valid desc\r\n        require(bytes(_desc).length > 0);\r\n        // Require a valid price\r\n        require(_price >= 0);\r\n        // Make sure the video hash exists\r\n        require(bytes(_imageHash).length > 0);\r\n        //assign value to products\r\n        productCount++;\r\n        products[productCount] = Product(\r\n            productCount,\r\n            _serialNo,\r\n            _name,\r\n            _desc,\r\n            _price,\r\n            _imageHash,\r\n            msg.sender\r\n        );\r\n\r\n        // Trigger an event\r\n        emit ProductCreated(productCount, _serialNo, _name, _desc, _price, _imageHash, msg.sender);\r\n    }\r\n\r\n    function getProductById(uint id) public {\r\n        Product storage p = products[id];\r\n        emit ProductFetch(p.id, p.serialNo, p.name, p.desc, p.price, p.imageHash, p.owner); \r\n    }\r\n\r\n    function getProductCount() view public returns(uint){\r\n        return productCount;\r\n    }\r\n}",
  "sourcePath": "E:\\Projects\\WalX.Company\\_blockchain\\_tutorials\\dshopping\\src\\contracts\\DShopping.sol",
  "compiler": {
    "name": "solc",
    "version": "0.5.16+commit.9c3226ce.Emscripten.clang"
  },
  "schemaVersion": "3.4.4",
  "updatedAt": "2022-01-20T07:28:25.113Z",
  "networkType": "ethereum",
  "devdoc": {
    "methods": {}
  },
  "userdoc": {
    "methods": {}
  }
}